:060000000C944D000C946D
:1000060000000C9400000C9400000C9400000C946A
:1000160000000C9400000C9400000C9400000C945A
:1000260000000C9400000C9400000C9400000C944A
:1000360000000C9400000C9400000C9400000C943A
:1000460000000C9400000C9400000C940000102793
:10005600E80364000A00010000100001100001001E
:10006600543A2530326409097365742854293A25AF
:100076003032640D0A483A253032640909736574D2
:100086002848293A25303264000080C00200600109
:1000960090000000F894EE27ECBBF1E0FBBFEBBF4D
:1000A600E5BF8DE0A2E0BB27ED938A95E9F780E0F6
:1000B60094E0A0E6ED930197E9F7E2E9F0E0859197
:1000C6009591009761F0A591B59105901590BF01A6
:1000D600F00105900D920197E1F7FB01F0CFEFE5F6
:1000E600EDBFE4E0EEBFC0E6D1E00C947A00AC9739
:1000F6000E94280400E010E020E030E040E050E0FC
:10010600EFEFE4BBE0E0E7BBA0E1AFD1EDB7FEB7B0
:100116003197FA93EA931F930F93ADB7BEB7119732
:100126003F932F9385D02F913F910F911F91AF0150
:10013600FE013496FA93EA93E6E6F0E0FA93EA9340
:10014600F8010E942E04EA85FB850E942E04F9011F
:100156000E942E04E889F9890E942E0480E10E94FB
:10016600DB03649650D1DE0114966ED1A1E0B0E0B7
:100176000E947104E0E0EA93A1E038D1B09B0EC082
:100186000E943304EA81FB813196EA83FB83AA81CC
:10019600BB81989719F4E0E0EA83EB83B19B10C02A
:1001A6000E943304E881F9813196E883F983A881B6
:1001B600B981A634E0E0BE0719F4E0E0E883E983FC
:1001C600B29B11C00E943304EA81FB813197EA8316
:1001D600FB83AA81BB81AF3FEFEFBE0721F4E6E4C4
:1001E600F0E0EA83FB83B39B11C00E943304E881ED
:1001F600F9813197E883F983A881B981AF3FEFEFA1
:10020600BE0721F4E6E4F0E0E883F983E881F981AA
:100216002E173F0714F4A89A01C0A898EA81FB811B
:100226000E171F0714F4A99A01C0A9986FCFFFCF24
:10023600BA93AA9329970E9428040E949D0428E055
:1002460030E040E050E0E0E0EE83EF83AE81BF8136
:10025600159774F4EE81FF81DE011A96AE0FBF1F6B
:10026600E0E0EC93EE81FF813196EE83FF83EECFE3
:10027600D19AD998A4E1B0E00E947104D99A85E098
:100286008A95F1F7D198D99840E050E0C99906C00F
:100296008BE68A95F1F74F5F5F4FF8CF4135E0E087
:1002A6005E0718F0EEEFFFEF6CC040E050E0C99B30
:1002B60006C083E08A95F1F74F5F5F4FF8CF41356F
:1002C600E0E05E0718F0EEEFFFEF5BC0E0E0EE83E4
:1002D600EF83AE81BF819897BCF540E050E0C99BA3
:1002E600FECFC99B04C04436E0E05E0708F006C0B6
:1002F6004F5F5F4F83E08A95F1F7F3CF4031E0E03F
:100306005E0778F0E885F985DE011A96EA0FFB1F8D
:10031600BF011080E22FA1E00E948304E129DB01E6
:10032600EC93022E032A41F427E030E0E885F985B4
:100336003196E887F98702C021503040EE81FF816F
:100346003196EE83FF83C5CFEA85AF85B889F0E0A5
:10035600ED93FC93EC85A989BA89F0E0ED93FC93C3
:10036600EB85AA85EA0FAC85EA0FAD85AE0FEA2FBD
:100376001E2FAE851A1719F0EFEFFFEF02C0E0E06F
:10038600F0E00E94A40463960895AA93E881E071C0
:1003960011F0939A01C09398E881E07211F0929A55
:1003A60001C09298E881E07411F0919A01C0919889
:1003B600E881E07811F0909A01C090988DE08A95D6
:1003C600F1F7949A8DE08A95F1F794988DE08A95E5
:1003D600F1F778C0AA93A881D8DFE881E295E8838F
:1003E600A881D3DF85E88A95F1F76CC0AA93E881E6
:1003F600F0E0E05AFE4FE081A981AE0FEBDF5980B5
:10040600488022960895A2E00E943704ACE0E2DF1D
:10041600A1E00E943704E0E04E2E5E2E0895AA93D6
:10042600A881AA3011F0571448F0E0E0EA9343940B
:10043600A42DDCDFA881AA3009F444C05394969A0F
:10044600A881C8DF96983EC0BA93AA931A93A98149
:10045600BA81ED91A983BA831E2FE03019F0A12F3E
:10046600DEDFF5CF188123960895AA938B9A8A9A90
:10047600899A889A8C9A8E9A8D9A94989698959835
:100486007880E881E058E0936201E881E054E093E7
:100496006301A4E1B0E00E9471040E943D040E9441
:1004A6003D040E943D04A0E270DF88EC90E00197D5
:1004B600F1F7A8E28FDFA4E08DDFA5E88BDFA6E0E9
:1004C60089DFA1DF21960895BA93AA931A930A9316
:1004D600AA81BB8112960E949004309759F1AA8195
:1004E600BB8114960E9490048F01309761F0023010
:1004F600E0E01E0798F0F80131978F01AA81BB81D1
:100506001496ED93FC93AA81BB811296ED91FD9111
:100516003196FE93EE933197AC81A083AA81BB817D
:100526000E949004FF232AF0ED91FD913196FE93EF
:10053600EE9306C0AA81BB81EFEFFFEFED93FC932C
:100546001981088125960895BA93AA9326970E9441
:100556009D0410E0AC85BD85E0E0F0E0ED93FC93F2
:10056600EA89FB893196EA8BFB8B3197E4912E2F32
:10057600E03009F415C1E12FE03039F4253211F4E9
:1005860011E002C00E9445040AC1E130A9F42532F7
:1005960019F40E94450402C112E040E000E02D3249
:1005A60011F401E0FCC02B3211F44BE2F8C020320A
:1005B60011F440E2F4C002C0E23039F450E013E036
:1005C600203311F40068EBC003C0E33009F0E7C044
:1005D600203310F02A3308F007C0AAE05A9F502DA6
:1005E600E22FE0535E0FDBC0E22FE33649F40E94B0
:1005F6004C04E889F989A481AA930E945204CEC0CA
:10060600E33741F40E944C040E9458040E940F04F0
:100616001E2F0AC0E03761F40E944C040E94580461
:100626000E941B041E2F086002600F7730E034C062
:10063600E43611F0E93611F4046002C0E53731F40E
:10064600E4E5F0E0EE83FF8315E00CC0E83511F435
:10065600086003C0E83709F0A1C0EEE5F0E0EE83DC
:10066600FF8314E002FF14C00E944C040E9462043F
:10067600AB85AA233AF4EA85FB850E947F04EA87C4
:10068600FB874DE2403011F01F5F01C00B7F04C0B5
:100696000E944C040E94620400FD11C0151778F4F4
:1006A60007FF08C002FF04C00B7F242F115001C0B2
:1006B60020E301C020E20E9445045150EFCF312FC4
:1006C60001FF17C03030A1F003FF06C0EE81FF81A5
:1006D6002591EE83FF8305C0AE81BF812D91AE8348
:1006E600BF830E944504503009F051503150EACF83
:1006F6004BC020E3EE81FF810E949404E887F987CE
:10070600EE81FF813296EE83FF83E885F985AA851F
:10071600BB85AE17BF0750F02F5FA885B985EA8560
:10072600FB85EA1BFB0BEA87FB87EFCF2A3328F012
:1007360003FF02C0295F01C0295D04FD1AC02133F1
:1007460020F4A885B985119709F409C0531710F04C
:1007560000FF01C013C020E207FF0BC020E30061C9
:1007660002FF07C00B7F4A930E945204503009F0E3
:1007760051500E944504503009F051503150A8851F
:10078600B985129708F0B5CF00FF08C0503031F098
:100796005150E0E2EA930E945204F8CF10E0E0CE16
:1007A600AC85BD850E9490040E94A40464960895B9
:1007B600FF92F82E26970E949F040E946A043097A3
:1007C60019F4EFEFFFEF23C0DE0116960E947B04BB
:1007D6008D010E946A04EE83FF83E0E0E887E987E3
:1007E600DE011A960E947B040E949004FA93EA9313
:1007F6001A930A93E7E6F2E0FA93EA93DE011A9671
:10080600A3DE9F01AE81BF81E0E0EC93F9010E9477
:10081600A6042A96FF900895BA93AA93A991B9912E
:10082600EE27FF276D91662311F03196FBCF0895D1
:10083600BA93AA93AA27BB27E991F99105900020BC
:1008460011F01196FBCFFD010895E0E0E883E983FE
:10085600EA83EB8308950E948B040E94980408950E
:10086600A8ECB0E00C9471040E94ED01A3E0B0E0A6
:100876000C947104A0E30E94C80188EC90E00197F3
:10088600F1F708952A93AD85BE85EF85F889099518
:100896000895E889F9893497E88BF98B0895AD8531
:1008A600BE85EF85F88909950895A889B9891496B2
:1008B6000E949004EE83FF83AE81BF810895A889CC
:1008C600B98914960E949004EA87FB870895DE0191
:1008D6001C960E947B040E9490040895109639F09D
:1008E60080ED97E00197F1F7A8951197C9F708955C
:1008F6000024AF0DB01D0895F195E195F0400895DF
:10090600EE230E2EEA2F19F0EE0F0A94E9F708955A
:100916006F2F660F660B762F0895ED91FC91119758
:1009260008950590F491E02D08957A936A93FA93C9
:10093600EA9308955A934A933A932A931A930A93F9
:1009460008955D814C813B812A8119810881089532
:00000001FF
